:020000040800F2
:1000000008050020850600089D0100089F010008E2
:10001000A1010008A3010008A501000800000000DC
:10002000000000000000000000000000A701000820
:10003000A901000800000000AB010008AD010008A4
:100040009F0600089F0600089F0600089F060008FC
:100050009F0600089F0600089F0600089F060008EC
:100060009F0600089F0600089F0600089F060008DC
:100070009F0600089F0600089F0600089F060008CC
:100080009F0600089F0600089F0600089F060008BC
:100090009F0600089F0600089F0600089F060008AC
:1000A0009F0600089F0600089F0600089F0600089C
:1000B0009F0600089F0600089F0600089F0600088C
:1000C0009F0600089F0600089F0600089F0600087C
:1000D0009F0600089F0600089F0600089F0600086C
:1000E0009F0600089F0600089F0600089F0600085C
:1000F0009F0600089F0600089F0600089F0600084C
:100100009F0600089F0600089F0600089F0600083B
:100110009F0600089F0600089F0600089F0600082B
:100120009F0600089F0600089F0600089F0600081B
:100130009F0600089F0600089F0600089F0600080B
:100140009F0600089F0600089F0600089F060008FB
:100150009F0600089F0600089F0600089F060008EB
:100160009F0600089F0600089F0600089F060008DB
:100170009F0600089F0600089F0600080000000078
:100180009F0600089F060008DFF80CD006F022F852
:1001900000480047A1030008080500207047FEE75B
:1001A000FEE7FEE7FEE770477047704710B505F0C1
:1001B0009AFFBDE8104005F0A8BD000010B503206F
:1001C00005F0A6FC002211466FF00B0005F0ADFC17
:1001D000002211466FF00A0005F0A7FC002211462C
:1001E0006FF0090005F0A1FC00221146501F05F038
:1001F0009CFC00221146101F05F097FC00221146BE
:10020000901E05F092FC0022BDE810401146501EE1
:1002100005F08BBC00B50068364987B0884212D122
:1002200035480021026842F480720260006800F4E0
:1002300080700590302000900320CDE901016946CF
:100240002E4805F07BFD07B000BD006829498842B3
:1002500008D12948016821F48071016030212748C4
:1002600005F02EBE704708B500682549884208D1C0
:100270002148016841F001010160006800F00100BF
:10028000009008BD00681E49884204D11A480168E0
:1002900021F001010160704700B50068194987B07D
:1002A0008842D0D11448001F016841F40021016048
:1002B0000068022100F4002005900320CDE9000130
:1002C0000121CDE902100820049069460E4805F08E
:1002D00035FDB8E700680B49884209D10648001F80
:1002E000016821F4002101600321074805F0E8BD01
:1002F00070470000002001404438024000080240DE
:1003000000000140004C004000000240FEE730B514
:100310009E4893B00024016841F08051016000685C
:1003200000F0805011909A48016841F480410160CA
:100330000068022500F480401190012003901020F5
:100340000490009506950820CDE907404820CDE9A6
:10035000090504200B90684605F063F800B1FEE73C
:100360000F20CDE90C054FF48050CDE90E4002215D
:100370000CA8109405F0F1F900B1FEE705F0FAFAC7
:100380004FF47A71B0FBF1F005F011FC042005F098
:10039000AFFC00221146501E05F0C7FB13B030BD64
:1003A0002DED028B05F06EFEFFF7B1FF00F0B2F805
:1003B00000F08EF800F066F8774876490024016076
:1003C0004FF4E131C0E901140C21C460C0E90441DB
:1003D0008461C46103F09DFD00B1FEE76E483C38C6
:1003E00001F095FD6C4801214030022541606021FB
:1003F00001606A4EC0E902450146304605F09EFCA8
:10040000654903205431486030200860C1E9024545
:10041000634805F093FC634C35469FED638ADFED3E
:10042000638AA068401CA060022005F064FE2021C1
:10043000284605F0DFFD022005F05DFE402128463C
:1004400005F0D8FD5448843801F0EAF8207052488D
:100450003221843801F057F960704F48843801F038
:10046000DEFB00EE100A60604B48B8EEC00A84382C
:1004700020EE080AC0EE280AC4ED030A01F025F9AF
:10048000A070CEE710B5444886B03C3848490024F7
:10049000C0E900148460C4600461446101F0FFFCA1
:1004A00000B1FEE74FF4805000903B4869463C386D
:1004B00003F067FA00B1FEE73748049404A93C381A
:1004C000059404F040FF002800D0FEE706B010BD00
:1004D0007FB53148374984380024C0E9001484606E
:1004E000846104620125C462C0E90345C5614561B8
:1004F000046301F04CF800B1FEE70F20CDE90005E0
:10050000254869460294843801F08CFB002800D00D
:10051000FEE77FBD1D4808B51038016841F0800135
:100520000160016801F080010091016841F004015F
:100530000160016801F004010091016841F00101CE
:100540000160016801F001010091016841F00201C0
:100550000160016801F002010091016841F00401AD
:100560000160016801F004010091016841F0080197
:100570000160016801F008010091016841F010017B
:100580000160006800F01000009008BD4038024093
:1005900000700040004C00409C0000200010024011
:1005A00000080240000000200AD7534000F07F45B9
:1005B00000000140002001402A48016841F4700118
:1005C00001602948016841F001010160264A0021CB
:1005D000083211600268254B1A400260031D244A4C
:1005E0001A60026822F4802202601F480C30016009
:1005F0001C49580680390860704770B51A4C083499
:1006000020681C4A10F00C011B4804D01B4D042923
:1006100003D0082903D002601BE0056019E01249ED
:10062000091D0B68C3F380560B6803F03F0316B136
:10063000B5FBF3F201E0B2FBF3F20B680968C3F318
:1006400088135A43C1F30141491C4900B2FBF1F13F
:10065000016021680A4AC1F30311515C0268CA4073
:10066000026070BD88ED00E000380240FFFFF6FE3A
:10067000103000240024F4001000002040787D0198
:10068000166200080648804706480047FEE7FEE776
:10069000FEE7FEE7FEE7FEE7FEE7FEE7FEE7FEE732
:1006A000B90500088901000818B50022009290F8E9
:1006B0003C10012907D0012180F83C1001688B68AB
:1006C000DB0702D011E0022018BD8B6843F0010364
:1006D0008B60FE49FE4B0968B1FBF3F101EB410170
:1006E00000E0491E00910029FBD101688B68DB07FF
:1006F00026D0036C42F20104A34343F48053036405
:10070000036CDB0500D4426480F83C206FF00402E7
:100710000A60F049D1F804230068D20612D082683A
:1007200012F4401F1ED00022436843F380235B1C59
:10073000884205D122B11BB1816841F480018160FA
:10074000002018BD816811F4401F09D000214268C3
:1007500042F38022521C0029F2D0002AECD1EFE7AC
:100760000121F4E70122DFE718B50022009290F89A
:100770003C10012907D0012180F83C1001688B68EA
:10078000DB0702D011E0022018BD8B6843F00103A3
:100790008B60CE49CE4B0968B1FBF3F101EB41010F
:1007A00000E0491E00910029FBD101688B68DB073E
:1007B0002BD0036C42F20104A34343F4805303643F
:1007C000036CDB0500D4426480F83C206FF0040227
:1007D0000A6001684A6842F080024A60BD4AD2F865
:1007E00004130068C906816801F440110FD0C9B133
:1007F0000023416841F38021491C904205D123B177
:1008000019B1816841F480018160002018BD39B1BF
:100810000022416841F38021491C002AF0D1F4E70D
:100820000122F6E70123E4E790F83C200021012AA9
:1008300012D0012280F83C20026CD20515D4026847
:1008400053685B0511D4936823F001039360026839
:100850009268D20702D00DE002207047026C22F4A9
:10086000885242F00102026404E0016C41F0200170
:1008700001640121002280F83C200846704770B5D1
:100880000D46044605F034FC06460EE0681C0CD00C
:1008900025B105F02DFC801BA84206D90420206458
:1008A000002084F83C00032070BD206800684007E9
:1008B000ECD521686FF00C000860206C40F400500B
:1008C00020642068816811F4401F1AD1816B11F4F3
:1008D000401F02D08168490513D44168490510D4EE
:1008E000806810F0405F0CD1A06950B9206C20F4F2
:1008F00080502064206CC00503D4206C40F00100BF
:100900002064002070BD90F83C200021012A12D004
:10091000012280F83C20026CD20519D40268536889
:100920005B0515D4936823F0010393600268936814
:10093000DB0702D011E002207047536823F08003E8
:100940005360026C22F4885242F00102026404E017
:10095000016C41F0200101640121002280F83C205B
:100960000846704708B5002200920368521F1A60BB
:10097000012911D002290CD0032906D0042901D065
:10098000009808BD0068806C01E00068406C009031
:1009900008BD0068006CFAE70068C06BF7E7806B81
:1009A00040210164416C41F00401416400F0B6BF94
:1009B000806B01F05FB80146806B026C12F0500F43
:1009C00003D0806BC26C08461047016C41F4007183
:1009D000016401688A6812F0405F17D18269AAB980
:1009E000CA6A12F4700F02D08A6852050ED44A689F
:1009F00022F020024A60016C21F480710164016CD4
:100A0000C90403D4016C41F00101016400F088BF06
:100A1000F8B5134600220446009290F83C000128E5
:100A200007D0012084F83C0020688568ED0702D0DB
:100A300011E00220F8BD856845F001058560234876
:100A4000234D0068B0FBF5F000EB400000E0401ED5
:100A500000900028FBD120688568ED0754D0256CF4
:100A600040F20166B54345F4807525644068400551
:100A700005D5206C20F4005040F480502064206C98
:100A8000C00404D5606C20F00600606400E062647D
:100A900084F83C20A26B1048D063A26B0F4810640E
:100AA000A26B0F48D06422686FF0020010602068CB
:100AB000426842F0806242600648226B002AD0F809
:100AC00004230FD042F400520EE00000100000207A
:100AD00040420F0000200140B7090008B10900089A
:100AE0009F09000822F40052C0F804230A46A749CF
:100AF000A06B00F02CFA2068816811F0405F03D1F0
:100B0000816841F0804181600020F8BD10B5044645
:100B1000002094F83C1001290CD0012184F83C10ED
:100B200021688A6822F001028A6021688968C90701
:100B300002D016E0022010BD9548D0F8041321F42D
:100B40000051C0F80413A06B00F03CFA21684A6819
:100B500022F080624A60216C21F4885141F0010149
:100B60002164002184F83C1010BD8948D0F80803A6
:100B70007047704770B590F83C20864D012A19D017
:100B8000012280F83C200A6807230468092A13D947
:100B9000E6680A3A02EB420293409E43E6600A7816
:100BA0008B680A3A02EB420293400268D4682343FE
:100BB000D36010E0022070BD266902EB4202934030
:100BC0009E4326610B788A6803EB43039A400368CF
:100BD0001C6922431A610268936B23F440139363E8
:100BE0000268936B0C8A6C4E06EB045423439363A8
:100BF0000A790B7CD21AD21C02EB82021F2393408B
:100C00000268946B9C4394630A790B7CD21AD21CC1
:100C100002EB82030A8892B29A4003689C6B2243DB
:100C20009A63CA69AA420268936823F470239360A6
:100C3000026893680CD0CC69234393600268936880
:100C400023F440139360026893680C6A234301E025
:100C500023F4401393608A69002A0268536802D023
:100C600043F4806301E023F4806353604A69002AFF
:100C70000268536802D043F4805301E023F48053A8
:100C800053604A68012A15D0022A1ED0032A02683E
:100C900026D0136A6FF30B0313620268136ACC68E1
:100CA000234313623A4A0368934229D10B68122BFB
:100CB00020D025E0026853696FF30B03536102688B
:100CC0005369CC6823435361ECE7026893696FF37F
:100CD0000B03936102689369CC6823439361E1E756
:100CE000D3696FF30B03D3610268D369CC682343E4
:100CF000D361D7E7D2F8043343F48003C2F8043356
:100D0000036893420AD10968102901D0112905D13D
:100D1000D2F8041341F40001C2F80413002180F852
:100D20003C10084670BD10B590F83C20012A2BD02D
:100D3000012200F83C2F164AD2F8043323F01F0397
:100D4000C2F80433D2F804330C682343C2F80433E6
:100D5000D2F8043323F44043C2F80433D2F8043306
:100D60004C682343C2F80433D2F8043323F470638D
:100D7000C2F80433D2F8043389680B43C2F8043351
:100D800000210170084610BD022010BD082301405B
:100D90000020014001000F000000F0FF016818234F
:100DA000CAB2103AB2FBF3F2F84B6FF30901032A0F
:100DB0009B5CC36500D9091D8165084670472DE914
:100DC000F041044605F094F906465CB1002584F82C
:100DD0003450022084F835002068016821F00101B8
:100DE00001600EE00120BDE8F08100BF05F080F950
:100DF000801B052805D920206065032084F8350074
:100E0000F1E720680068C007F0D122681168E04867
:100E10000140D4E901031843D4E9033633431843AE
:100E200063691843A3691843E3691843236A1843A5
:100E30000843616A042903D1D4E90B131943084319
:100E4000106020684069666A20F0070130460E4352
:100E5000012704280AD1A06A0643204600F0D1FAEF
:100E600020B14020606584F83570BBE7206846619A
:100E70002046FFF793FF94F85C203F21914081606A
:100E8000656584F835700020ADE770B5040025D0A5
:100E900094F83500022820D02068016821F0010173
:100EA0000160206800250560206845602068856035
:100EB0002068C560206805612168212048612046BE
:100EC000FFF76CFF94F85C203F21914081606565DD
:100ED00084F8355084F83450002070BD012070BD76
:100EE00030B50468256825F48025256004686360B2
:100EF0008368402B036803D099600068C26030BDEE
:100F00009A600068C16030BD70B5044690F8340046
:100F1000002501280CD0012084F8340094F83560B5
:100F20000020012E06D084F834000225284670BD2A
:100F3000022070BD022684F8356060652046FFF708
:100F4000CFFF2068016841F001010160EEE72DE963
:100F5000F0410446866D90F83400002501280CD03D
:100F6000012084F8340094F835700020012F06D059
:100F700084F834000225284635E7022033E70227AB
:100F800084F8357060652046FFF7AAFF94F85C107E
:100F90003F208840B0602068016841F01601016080
:100FA0002068416941F080014161206C20B12068D6
:100FB000016841F0080101602068016841F0010109
:100FC0000160D8E72DE9F0410446876D05F090F8FF
:100FD000064694F835000025022805D0802060657B
:100FE00084F834500120FEE62068016821F01601E3
:100FF00001602068416921F080014161206C08B9DD
:10100000A06C20B12068016821F00801016020680F
:10101000016821F0010101600CE000BF05F068F8F3
:10102000801B052806D92020606504F8345F032062
:101030006070D8E620680068C007EFD194F85C10B3
:101040003F208840B86004F8345F012060700020C1
:10105000C9E690F83510022903D0802141650120AE
:101060007047052180F835100068016821F0010102
:101070000160002070472DE9F74F82B00446002040
:101080008946019005F034F8009094F83500002767
:10109000022804D08020606584F8347069E02068FC
:1010A0000068C00503D54FF48070606561E094F876
:1010B0005C004FF0200B4FF0100AB9F1000F06D082
:1010C0000AFA00F6A56D28684FF001083BE00BFA1C
:1010D00000F6F7E70498401C12D0049830B105F0F0
:1010E00007F80099411A0498814209D9C4F854B00C
:1010F00004F8347F84F80180032005B0BDE8F08F48
:10110000286894F85C2008219140014204D0626D67
:1011100042F001026265A96094F85C201D4991408B
:10112000014204D0626D42F002026265A960194971
:1011300094F85C20C91C9140014204D0626D42F0D9
:1011400004026265A960304202D1606DC007C1D05F
:10115000606D302678B1606DC0070CD02046FFF777
:1011600031FF94F85C008640AE6004F8347F84F868
:1011700001800120C1E7B9F1000F0DD094F85C1097
:101180000AFA01F0A8600198B7E70000266200089B
:101190003F8010F00100800094F85C008640AE6053
:1011A00004F8347F84F80180EDE72DE9F843044624
:1011B0004FF00008CDF80080A7484FF41651A56DF8
:1011C0000068B0FBF1F72E6894F85C10082000FA74
:1011D00001F131420FD021680A6852070BD50A6825
:1011E00022F004020A6094F85C108840A860606DE8
:1011F00040F00100606594F85C10984888403042E7
:1012000008D021684969090604D5A860606D40F0DE
:1012100002006065914894F85C10C01C8840304220
:1012200008D021680968890704D5A860606D40F07E
:101230000400606594F85C1010208840304218D09B
:1012400021680968090714D5A86020680168490366
:1012500004D50068000308D5A16C07E00168C90542
:1012600003D4016821F008010160216C09B1204616
:10127000884794F85C102020884030424FF00106E7
:1012800031D021680968C9062DD5A86094F83500C9
:1012900005282068016806D0490347D50068000387
:1012A0001DD4616C1CE021F01601016020684169C9
:1012B00021F080014161206C08B9A06C20B1206848
:1012C000016821F00801016094F85C103F2088401B
:1012D000A86084F8348084F83560216D1FE0E16BEC
:1012E00009B120468847606D00282BD0606DC0078B
:1012F00014D0052084F835002068016821F0010130
:1013000001600098401C0090B84203D82068006833
:10131000C007F6D184F8348084F83560E16C002988
:1013200010D001B02046BDE8F04308470168C90568
:10133000D5D4016821F01001016084F8348084F86C
:101340003560CCE7BDE8F88310B590F83440002351
:10135000012C0CD0012480F8344090F83540012C49
:1013600007D00123002180F83410184610BD022058
:1013700010BD0629F6D2DFE801F0030507090B0DC1
:10138000C263EFE70264EDE74264EBE78264E9E7FA
:10139000C264E7E70265E5E710B590F83420002362
:1013A000012A08D0012280F8342090F8354000222C
:1013B000012C02D01BE0022010BD072917D2DFE864
:1013C00001F00406080A0C0E1000C26310E002646B
:1013D0000EE042640CE082640AE0C26408E0026548
:1013E00006E0C263026442648264C264F7E70123D8
:1013F00080F83420184610BD90F835007047406DD5
:10140000704710B5014600208B698A6A4FF0C0749E
:1014100053B1B3F5005F15D072B1012A0CD0022A86
:101420000AD0032A09D104E01AB1012A06D0022AFF
:1014300003D1C96AC90100D5012010BDC96AA14202
:10144000FAD010BD002AF7D0012AF2D0022AF3D038
:10145000032AF3D010BD000010000020010080001E
:10146000FA4910B5D1F8042322F44032C1F804231C
:10147000D1F8042343681A43C1F8042301684A6879
:1014800022F480724A6001684A68036942EA0322D2
:101490004A6001684A6822F040724A6001684A68FE
:1014A00083681A434A6001688A6822F400628A608D
:1014B00001688A68C3681A438A60816A6FF0706243
:1014C000D14201688A6822F070628A6001688A6885
:1014D0000CD0836A1A438A6001688A6822F04052FD
:1014E0008A6001688A68C36A1A4301E022F04052A8
:1014F0008A6001688A6822F002028A6001688A684C
:10150000836942EA43028A60016A002901684A68E5
:1015100015D042F400624A6001684A6822F46042D1
:101520004A6001684B684FF46044426A94FAA4F43C
:10153000B4FA84F4521EA24013434B6002E022F43A
:1015400000624A600168CA6A22F47002CA620168D5
:10155000CA6A838BBE4C04EB03531A43CA62016808
:101560008A6822F400728A6001688A68036B42EA22
:1015700043228A6001688A6822F480628A60016876
:101580008A68406942EA8020886010BD704770B563
:1015900004004FF0000503D0206C002610B107E0D6
:1015A000012070BD666484F83C602046FEF732FE80
:1015B000206CC00610D4206C20F4885040F002004B
:1015C00020642046FFF74CFF6664206C20F0020088
:1015D00040F00100206400E0012584F83C602846CA
:1015E00070BD704770B504000FD0206C40F0020051
:1015F00020642068816821F0010181602068806892
:101600004FF00005C00702D006E0012070BD204663
:10161000FEF71BFE65642564284684F83C5070BDC7
:1016200018B50021009190F83C20012A07D0012232
:1016300080F83C2002689368DB0702D011E00220AA
:1016400018BD936843F001039360824A824B12688D
:10165000B2FBF3F202EB420200E0521E0092002ABB
:10166000FBD102689368DB072DD0036C40F2016464
:10167000A34343F48073036453685B0505D5036C8F
:1016800023F4005343F480530364036CDB0404D558
:10169000436C23F00603436400E0416480F83C108F
:1016A0006FF0220111606949D1F804230068D20665
:1016B00001D0884207D1816811F0405F03D1816871
:1016C00041F080418160002018BD90F83C10012954
:1016D0000CD0012180F83C1001688A6822F00102D8
:1016E0008A6001688968C90702D007E00220704754
:1016F000016C21F4885141F001010164002180F85E
:101700003C10084670472DE9F041044600680D463C
:1017100081684FF0000749050BD58068C00508D5E2
:10172000206C40F02000206484F83C700120BDE86B
:10173000F08104F0DDFC06460FE0681C0DD025B1F9
:1017400004F0D6FC801BA84207D9206C40F00400AE
:10175000206484F83C700320E9E720680068800773
:10176000EBD521686FF012000860206C40F4007027
:1017700020642068816811F0405F13D1A16989B9A4
:10178000C16A11F4700F02D0806840050AD4206C41
:1017900020F480702064206CC00403D4206C40F0DE
:1017A000010020640020C2E72DE9F04115460E46F5
:1017B000044604F09DFC074610E0681C0ED025B1DD
:1017C00004F096FCC01BA84208D9206C40F004002D
:1017D0002064002084F83C000320A8E7206800680B
:1017E00036EA0000E9D1206C012E0CD040F4806074
:1017F0002064606C40F0020060646FF0200021689B
:101800000860002093E740F4803020646FF001000E
:10181000F5E718B50021009190F83C20012A07D087
:10182000012280F83C2002689368DB0702D019E0AF
:10183000022018BD936843F001039360054A064BEC
:101840001268B2FBF3F202EB420208E00020014012
:101850000000F0FF1000002040420F00521E0092D6
:10186000002AFBD102689368DB0732D0036C40F298
:101870000164A34343F48073036453685B0505D597
:10188000036C23F4005343F480530364036CDB04C0
:1018900004D5436C23F00603436400E0416480F800
:1018A0003C106FF02201116001684A68FE4B1A4338
:1018B0004A60FE49D1F804230068D20601D088426C
:1018C00007D1816811F0405F03D1816841F0804108
:1018D0008160002018BD90F83C1001290CD0012136
:1018E00080F83C1001688A6822F001028A60016871
:1018F0008A68D20702D00CE0022070474A68EA4B9F
:10190000DB431A404A60016C21F4885141F0010127
:101910000164002180F83C1008467047704770470A
:10192000704770B50446006801684268C1F3400121
:10193000C2F3401251B34AB3216CC90603D4216CDF
:1019400041F400712164816811F0405F17D1A169F1
:10195000A9B9C16A11F4700F02D0816849050ED48B
:10196000416821F020014160206C20F480702064E7
:10197000206CC00403D4206C40F001002064204699
:10198000FFF7CEFF21686FF0120008602068016841
:101990004268C1F38001C2F3C01289B382B3216CE3
:1019A000C90603D4216C41F400512164816811F40B
:1019B000401F1ED1816B11F4401F02D08168490580
:1019C00017D44168490514D4816811F0405F10D1E3
:1019D000A16971B9416821F080014160206C20F457
:1019E00080502064206CC00503D4206C40F00100BE
:1019F00020642046FFF7BDF821686FF00C000860F6
:101A000020680168426811F0010FC2F380120ED005
:101A10006AB10068C0070AD0206C40F480302064AE
:101A20002046FFF77CFF21686FF001000860206806
:101A300001684268C1F34011C2F3806200290DD0F1
:101A4000002A0BD0616C41F0020161646FF0200547
:101A500005602046FFF762FF2068056070BD10B585
:101A6000806B40210164416C41F004014164FFF747
:101A700055FF10BD704710B5806BFFF7FBFF10BD21
:101A800010B50146806B026C12F0500F05D0806BD0
:101A9000C26CBDE8104008461047016C41F400716B
:101AA000016401688A6812F0405F17D18269AAB99F
:101AB000CA6A12F4700F02D08A6852050ED44A68BE
:101AC00022F020024A60016C21F480710164016CF3
:101AD000C90403D4016C41F001010164FFF720FF48
:101AE00010BDF8B50D4600210446009190F83C0069
:101AF000012807D0012084F83C0020688368DB07B8
:101B000002D011E00220F8BD836843F00103836036
:101B10006748684B0068B0FBF3F000EB400000E062
:101B2000401E00900028FBD120688368DB0748D066
:101B3000236C40F20166B34343F48073236440682E
:101B4000400505D5206C20F4005040F480502064FE
:101B5000206CC00404D5606C20F00600606400E0D6
:101B6000616484F83C10A16B5348C863A16B53486F
:101B70000864A16B5248C86421686FF022000860B5
:101B80002068416841F0806141602068816841F4CB
:101B900080718160216813462A464C31A06BFFF7A3
:101BA000D6F94249D1F80403C006206801D0884222
:101BB00007D1816811F0405F03D1816841F0804115
:101BC00081600020F8BD10B50446002094F83C1058
:101BD00001290CD0012184F83C1021688A6822F088
:101BE00001028A6021688A68D20702D013E00220CD
:101BF00010BD886820F480708860A06BFFF7E2F960
:101C000021684A6822F080624A60216C21F4885180
:101C100041F001012164002184F83C1010BD0068EE
:101C2000C06C704778B50024009490F83C20012ADD
:101C300019D0012280F83C200A6807230568092A88
:101C400013D9EE680A3A02EB420293409E43EE60DB
:101C50000B788A680A3B03EB43039A400368DD680C
:101C60002A43DA6010E0022078BD2E6902EB4202BE
:101C700093409E432E610A788B6802EB42029340A8
:101C8000026815692B4313614A681F23072A22D271
:101C900005686E6B521E02EB820293409E436E6398
:101CA0000A880B7992B20DE0200000040020014068
:101CB0001000002040420F00811A0008771A000827
:101CC0005F1A00085B1E03EB83039A4003685D6B99
:101CD0002A435A6327E005680D2A12D22E6BD21FC1
:101CE00002EB820293409E432E630B790A88DB1F2E
:101CF00092B203EB83039A4003681D6B2A431A6375
:101D000011E0EE6A0D3A02EB820293409E43EE62CE
:101D10000B790A880D3B92B203EB83039A40036868
:101D2000DD6A2A43DA62344A0368934208D10B68B9
:101D3000122B05D1D2F8043343F48003C2F80433E4
:101D4000036893421AD10B68102B01D0112B15D1C7
:101D5000D2F8043343F40003C2F8043309681029AD
:101D60000CD12649264A0968B1FBF2F101EB810149
:101D7000490000E0491E00910029FBD180F83C4059
:101D8000002078BD10B590F83C20012A2AD001220D
:101D900080F83C200A69012A0268536824D023F0A5
:101DA0004003536002685368164C23405360026836
:101DB00053680C682343536003684A685A62036897
:101DC0008A689A620268536823F01F0353600268AE
:101DD0005368898989B20B435360002180F83C1015
:101DE000084610BD022010BD43F04003D9E7006C47
:101DF0007047406C70470000002001401000002038
:101E000040420F00FFFD3FFFF0B50268FD4BFE4D65
:101E1000FE4EFF4FFF4C4FF0804C984209D060457A
:101E200007D0A84205D0B04203D0B84201D0A042AA
:101E300004D122F0700E4A6842EA0E0298421BD08A
:101E4000604519D0A84217D0B04215D0B84213D07F
:101E5000A04211D0F04DA8420ED0F04DA8420BD0B8
:101E6000EF4DA84208D0EF4DA84205D0EE4DA84254
:101E700002D0EE4DA84203D122F44075CA682A432D
:101E800002608A68C2620A688262984201D0A042F7
:101E900001D10969016301214161F0BD704710B5AD
:101EA000040003D094F8390010B107E0012010BD00
:101EB000002084F838002046FEF7D5F9022084F887
:101EC0003900211D2068FFF79FFF012084F83900A9
:101ED000002010BD704710B50446022084F8390078
:101EE0002068016A41F21112114207D1016A921071
:101EF000114203D1016821F0010101602046FEF783
:101F0000C1F9002084F8390084F8380010BD02219E
:101F100080F8391001680A6842F001020A60012164
:101F200080F8391000207047022180F839100168CC
:101F30000A6A41F211131A4207D10A6A9B101A4227
:101F400003D10A6822F001020A60012180F83910E9
:101F5000002070470168CA6842F00102CA60006848
:101F6000016841F001010160002070470168CA6802
:101F700022F00102CA600068016A41F211121142A6
:101F800007D1016A9210114203D1016821F00101C9
:101F9000016000207047704710B5806B012180F808
:101FA0003910FFF7F8FF10BD704710B5806B0121A5
:101FB00080F83910FFF7F8FF10BD70B5044690F8AF
:101FC0003900022805D094F83900012805D109B953
:101FD00002B170BD022084F83900E3699448D863E7
:101FE000AFF24B00E369D8642568134605F12C0273
:101FF000E069FEF7ACFF2068C16841F48071C16000
:102000002068016841F001010160002070BD016895
:10201000CA6822F48072CA6001680A6A41F2111328
:102020001A4207D10A6A9B101A4203D10A6822F0A9
:1020300001020A60012180F83910002070477047C2
:1020400010B5040003D094F8390010B107E0012066
:1020500010BD002084F838002046FFF7F0FF022072
:1020600084F83900211D2068FFF7CEFE012084F896
:102070003900002010BD704710B50446022084F8D6
:1020800039002068016A41F21112114207D1016A38
:102090009210114203D1016821F001010160204634
:1020A000FFF7E9FF002084F8390084F8380010BDFC
:1020B00010B50123046A8B409C430462036A8A4082
:1020C0001343036210BD10B5044600680122FFF7F8
:1020D000EFFF4C492068884202D04E49884203D124
:1020E000416C41F4004141642068016841F0010104
:1020F0000160002010BD10B5044600680022FFF703
:10210000D7FF404841F2111221689310814202D05A
:102110004048814209D1086A104206D1086A184233
:1021200003D1486C20F4004048642068016A1142E1
:1021300006D1016A194203D1016821F00101016051
:10214000002010BD10B50268044631B1042908D042
:10215000082920D00C2908D121E0D06840F00200E5
:1021600002E0D06840F00400D06001222068FFF750
:102170009FFF24492068884202D02649884203D123
:10218000416C41F4004141642068016841F0010163
:102190000160002010BDD06840F00800E4E7D0687E
:1021A00040F01000E0E710B50268044631B10429A0
:1021B00008D0082948D00C2908D149E0D06820F07F
:1021C000020002E0D06820F00400D0600022206805
:1021D000FFF76EFF0B4841F2111321689A108142FC
:1021E00002D00C48814209D1086A184206D1086A17
:1021F000104203D1486C20F4004048642068016A12
:10220000194217E0000001400004004000080040AF
:10221000000C004000040140004001400044014027
:102220000048014000180040001C00400020004011
:10223000AB1F000806D1016A114203D1016821F0E9
:1022400001010160002010BDD06820F00800BCE74B
:10225000D06820F01000B8E7704710B5846B0121FA
:1022600084F83910226A824201D121760EE0616A37
:10227000814201D1022008E0A16A814201D10420FB
:1022800003E0E16A814201D1082020762046FFF771
:10229000E3FF0020207610BD70B5044690F83900A9
:1022A00016460D46022805D094F83900012805D1BC
:1022B0000EB903B170BD022084F83900AFF2650099
:1022C000AFF22B3135B1042D13D0082D37D00C2DA2
:1022D0001ED143E0226AD063206AC164226831467D
:1022E0003432206AFEF733FE2068C16841F4007181
:1022F0000DE0626AD063606AC16422683146383298
:10230000606AFEF724FE2068C16841F48061C16004
:10231000012229462068FFF7CBFEFE49206888424B
:1023200002D0FD49884203D1416C41F4004141642F
:102330002068016841F001010160002070BDA26ABF
:10234000D063A06AC164226831463C32A06AFEF7BD
:10235000FEFD2068C16841F40061D8E7E26AD063FD
:10236000E06AC164226831464032E06AFEF7EFFD60
:102370002068C16841F48051C9E710B5026804467D
:1023800031B1042908D0082932D00C2908D133E012
:10239000D06820F4007002E0D06820F48060D06043
:1023A00000222068FFF784FEDA4B41F21112206808
:1023B0009110984202D0D84B984209D1036A134237
:1023C00006D1036A0B4203D1436C23F400434364F8
:1023D0002068036A134206D1026A0A4203D10168E7
:1023E00021F001010160012084F83900002010BDB6
:1023F000D06820F40060D2E7D06820F48050CEE7A7
:10240000704710B5040003D094F8390010B107E00C
:10241000012010BD002084F838002046FFF7F0FFAF
:10242000022084F83900211D2068FFF7EDFC01200F
:1024300084F83900002010BD704710B50446022012
:1024400084F839002068016A41F21112114207D163
:10245000016A9210114203D1016821F0010101606B
:102460002046FFF7E9FF002084F8390084F838009F
:1024700010BD10B5044600680122FFF719FEA549FA
:102480002068884202D0A449884203D1416C41F4BB
:10249000004141642068016841F0010101600020B1
:1024A00010BD10B5044600680022FFF701FE9948F0
:1024B00041F2111221689310814202D09648814264
:1024C00009D1086A104206D1086A184203D1486C43
:1024D00020F4004048642068016A114206D1016A74
:1024E000194203D1016821F001010160012084F843
:1024F0003900002010BD10B50268044631B104292E
:1025000008D0082920D00C2908D121E0D06840F05B
:10251000020002E0D06840F00400D0600122206890
:10252000FFF7C6FD7B492068884202D07A4988427D
:1025300003D1416C41F4004141642068016841F0DD
:1025400001010160002010BDD06840F00800E4E700
:10255000D06840F01000E0E710B50268044631B1E1
:10256000042908D008292FD00C2908D130E0D068E0
:1025700020F0020002E0D06820F00400D0600022C9
:102580002068FFF795FD634841F2111321689A1006
:10259000814202D06048814209D1086A184206D1BE
:1025A000086A104203D1486C20F400404864206857
:1025B000016A194206D1016A114203D1016821F072
:1025C00001010160002010BDD06820F00800D5E7AF
:1025D000D06820F01000D1E770B5044690F83900BB
:1025E00016460D46022805D094F83900012805D179
:1025F0000EB903B170BD022084F83900AFF2A530E6
:10260000AFF26B6135B1042D13D0082D37D00C2DEE
:102610001ED143E0226AD063206AC1642268314639
:102620003432206AFEF793FC2068C16841F40071DF
:102630000DE0626AD063606AC16422683146383254
:10264000606AFEF784FC2068C16841F48061C16063
:10265000012229462068FFF72BFD2E492068884279
:1026600002D02D49884203D1416C41F400414164BC
:102670002068016841F001010160002070BDA26A7C
:10268000D063A06AC164226831463C32A06AFEF77A
:102690005EFC2068C16841F40061D8E7E26AD0635B
:1026A000E06AC164226831464032E06AFEF74FFCBE
:1026B0002068C16841F48051C9E710B5026804463A
:1026C00031B1042908D0082937D00C2908D138E0C5
:1026D000D06820F4007002E0D06820F48060D06000
:1026E00000222068FFF7E4FC0A4B41F21112206837
:1026F0009110984202D0084B984209D1036A1342C4
:1027000006D1036A0B4203D1436C23F400434364B4
:10271000206803E00000014000040140036A134206
:1027200006D1026A0A4203D1016821F00101016069
:10273000012084F83900002010BDD06820F400602A
:10274000CDE7D06820F48050C9E7704710B5040089
:1027500003D094F8390010B107E0012010BD00202B
:1027600084F838002046FFF7F0FF022084F8390093
:10277000211D2068FFF748FB012084F83900002064
:1027800010BD704710B50446022084F83900206857
:10279000016A41F21112114207D1016A92101142ED
:1027A00003D1016821F0010101602046FFF7E9FF34
:1027B000002084F8390084F8380010BD10B50446B4
:1027C00000680122FFF774FC2068016841F00101F4
:1027D0000160002010BD10B5044600680022FFF71C
:1027E00067FC2068016A41F21112114207D1016AA7
:1027F0009210114203D1016821F001010160002013
:1028000010BD10B50268044631B1042908D008296A
:1028100015D00C2908D116E0D06840F0020002E083
:10282000D06840F00400D06001222068FFF740FC2F
:102830002068016841F001010160002010BDD068EE
:1028400040F00800EFE7D06840F01000EBE710B56B
:102850000268044631B1042908D008291ED00C2989
:1028600008D11FE0D06820F0020002E0D06820F01C
:102870000400D06000222068FFF71AFC2068016A7B
:1028800041F21112114207D1016A9210114203D193
:10289000016821F001010160002010BDD06820F026
:1028A0000800E6E7D06820F01000E2E7704710B5B6
:1028B000846B012184F83910226A824201D1217689
:1028C0000EE0616A814201D1022008E0A16A8142E2
:1028D00001D1042003E0E16A814201D10820207681
:1028E0002046FFF7E3FF0020207610BD70B50446B8
:1028F00090F839000E46022805D094F839000128D6
:1029000005D10AB903B170BD022084F83900AFF2D5
:102910006100AFF67B1536B1042E12D0082E2AD0F6
:102920000C2E1CD135E0216AC863206AC564216879
:10293000206A3431FEF70BFB2068C16841F4007156
:102940000CE0616AC863606AC5642168606A3831F6
:10295000FEF7FDFA2068C16841F48061C160012280
:1029600031462068FFF7A4FB2068016841F00101AF
:102970000160002070BDA16AC863A06AC5642168B7
:10298000A06A3C31FEF7E3FA2068C16841F40061B7
:10299000E4E7E16AC863E06AC5642168E06A40313F
:1029A000FEF7D5FA2068C16841F48051D6E710B52A
:1029B0000268044631B1042908D0082921D00C2925
:1029C00008D122E0D06820F4007002E0D06820F442
:1029D0008060D06000222068FFF76AFB2068016AEF
:1029E00041F21112114207D1016A9210114203D132
:1029F000016821F001010160012084F83900002004
:102A000010BDD06820F40060E3E7D06820F4805067
:102A1000DFE7704770B50D46040003D094F8390025
:102A200010B107E0012070BD002084F83800204676
:102A3000FFF7EFFF022084F83900211D2068FFF71F
:102A4000E3F92068016821F008010160206801684D
:102A500029430160012084F83900002070BD7047CF
:102A600010B50446022084F839002068016A41F25A
:102A70001112114207D1016A9210114203D101686B
:102A800021F0010101602046FFF7E9FF002084F8F2
:102A9000390084F8380010BD10B5044600680122E2
:102AA0000021FFF705FB012204212068FFF700FB4E
:102AB000FA492068884202D0F949884203D1416C22
:102AC00041F400414164002010BD10B504460022CD
:102AD00000681146FFF7ECFA002204212068FFF796
:102AE000E7FAEE4841F2111221689310814202D0B8
:102AF000EB48814209D1086A104206D1086A18429F
:102B000003D1486C20F4004048642068016A1142F7
:102B100006D1016A194203D1016821F00101016067
:102B2000002010BD10B504460068C16841F00201E4
:102B3000C1602068C16841F00401C1600122002128
:102B40002068FFF7B5FA012204212068FFF7B0FAE8
:102B5000D2492068884202D0D149884203D1416CD1
:102B600041F400414164002010BD10B504460068E6
:102B7000C16821F00201C1602068C16821F0040130
:102B8000C160002211462068FFF792FA002204215A
:102B90002068FFF78DFAC14B41F2111120688A10AD
:102BA000984202D0BE4B984209D1036A0B4206D12B
:102BB000036A134203D1436C23F400434364206847
:102BC000036A0B4206D1016A114203D1016821F068
:102BD00001010160002010BD70472DE9F0410D4654
:102BE000040003D094F8390018B108E00120BDE8D2
:102BF000F081002084F838002046FFF7EDFF022026
:102C000084F839002068816821F007018160211D66
:102C10002068FFF7F9F8226890689169166A2B68B6
:102C2000AF69034340F20330814341EA0721A868BA
:102C3000EF6908434FF6FC418843E96840EA072002
:102C4000014328692F6A000140EA07300843696898
:102C50006D6926F0AA0646EA0515294393602268A5
:102C6000906120680162012084F839000020BEE7ED
:102C7000704710B50446022084F839002068016AC4
:102C800041F21112114207D1016A9210114203D18F
:102C9000016821F0010101602046FFF7E9FF0020F3
:102CA00084F8390084F8380010BD10B50446006877
:102CB00089B1042904D001220021FFF7F9F9206825
:102CC00001220421FFF7F4F92068016841F00101B5
:102CD0000160002010BD01220021F3E710B5044679
:102CE0000068D9B1042904D000221146FFF7E0F9A9
:102CF000206800225FF00401FFF7DAF92068016A1A
:102D000041F21112114207D1016A9210114203D10E
:102D1000016821F001010160002010BD0022114670
:102D2000EAE710B50446006889B104294FF00102B2
:102D300016D00021FFF7BCF9012204212068FFF71B
:102D4000B7F92068C16841F00201C1600BE00122BF
:102D50000021FFF7ADF92068C16841F0020106E0EB
:102D60000421FFF7A5F92068C16841F00401C160A2
:102D70002068016841F001010160002010BD10B51C
:102D80000446006841B304294FF000022DD0002111
:102D9000FFF78EF9002204212068FFF789F92068E7
:102DA000C16821F00201C1602068C16821F00401FE
:102DB000C1602068016A41F21112114207D1016A13
:102DC0009210114203D1016821F00101016001203C
:102DD00084F83900002010BD00221146FFF768F981
:102DE0002068C16821F00201E2E70421FFF760F9E1
:102DF000DAE72DE9F041044690F83900069F98463D
:102E0000022809D094F83900012809D112B1B8F18B
:102E1000000F02D10FB10120E9E6022084F8390049
:102E2000AFF27555AFF68F6621B104291AD0182973
:102E300066D137E0206A3B46C563206AC6642168D4
:102E4000206A3431FEF783F82068C16841F40071CC
:102E5000C1602068016841F0010101600122002188
:102E6000206817E0606A3B464246C563606AC664F4
:102E70002168606A3831FEF76AF82068C16841F459
:102E80008061C1602068016841F001010160012298
:102E900004212068FFF70CF932E000000000014037
:102EA00000040140206A3B46C563206AC66421686D
:102EB000206A3431FEF74BF8606A3B464246C563F0
:102EC000606AC6642168606A3831FEF740F820689D
:102ED000016841F001010160012200212068FFF733
:102EE000E7F8012204212068FFF7E2F82068C168B2
:102EF00041F40071C1602068C16841F48061C16023
:102F0000002074E610B50446006841B304294FF070
:102F100000022DD00021FFF7CBF800220421206809
:102F2000FFF7C6F82068C16821F40071C16020680D
:102F3000C16821F48061C1602068016A41F2111208
:102F4000114207D1016A9210114203D1016821F0A8
:102F500001010160012084F83900002010BD002229
:102F60001146FFF7A5F82068C16821F40071E2E777
:102F70000421FFF79DF8DAE77047704770B5044603
:102F8000006801694FF00005C943890715D4C1687D
:102F9000C943890711D4E91E016101202076206808
:102FA00080698007204602D0FFF780FC04E0FFF72D
:102FB000E4FF2046FFF750F9257620680169C943F0
:102FC000490717D4C168C943490713D46FF00401F6
:102FD0000161022020762068806910F4407F20463D
:102FE00002D0FFF763FC04E0FFF7C7FF2046FFF7BE
:102FF00033F9257620680169C943090716D4C168E9
:10300000C943090712D46FF008010161042020763A
:103010002068C0698007204602D0FFF747FC04E023
:10302000FFF7ABFF2046FFF717F925762068016907
:10303000C943C90617D4C168C943C90613D46FF080
:1030400010010161082020762068C06910F4407FDB
:10305000204602D0FFF72AFC04E0FFF78EFF20464F
:10306000FFF7FAF8257620680169C943C90708D136
:10307000C168C943C90704D1891E01612046FEF712
:1030800093FF20680169C943090609D4C168C9438F
:10309000090605D46FF080010161204602F0B1F904
:1030A00020680169C943490609D4C168C943490672
:1030B00005D46FF0400101612046FFF75DFF2068F5
:1030C0000169C94389060BD4C168C943890607D47D
:1030D0006FF0200101612046BDE8704002F0F0B8B9
:1030E00070BD30B5026A22F480520262046A4268FE
:1030F000C3690D6823F4E64343EA05238D6824F48D
:10310000005444EA0534FE4DA84202D0FD4DA842C9
:1031100004D14D6922F4804242EA85124260C361C3
:1031200049680164046230BD30B5026A22F48072DD
:103130000262036A4268C46923F4007324F07305D1
:103140000C682C438D6843EA0523ED4DA84202D05C
:10315000EC4DA8420ED1CD6823F4006343EA052369
:103160004D6922F4405242EA05128D6923F48063CE
:1031700042EA05124260C4614968C163036230BD1E
:1031800030B5026A22F010020262026A4368846962
:103190000D6824F4E64444EA05248D6822F02002F8
:1031A00042EA0512D64DA84202D0D64DA8420ED111
:1031B000CD6822F0800242EA05124D6923F4406393
:1031C00043EA85038D6922F0400243EA85034360A8
:1031D000846149688163026230BD30B5026A22F0C1
:1031E00001020262026A436884690D6824F0730474
:1031F000254322F002048A682243C14CA04202D037
:10320000C04CA0420BD122F00804CA6823F44073DA
:1032100022434C6922F004021C438B692343436020
:10322000856149684163026230BD70B5044690F81B
:10323000380001280DD0012584F83850022084F888
:10324000390042B1042A0AD0082A0CD00C2A11D124
:103250000DE0022070BD2068FFF7BFFF0AE0206884
:10326000FFF78EFF06E02068FFF75EFF02E02068B0
:10327000FFF737FF84F83950002084F8380070BD1C
:1032800030B5046A24F0100404628469056A24F4E9
:10329000407444EA022222F470444FF6FF7202EABC
:1032A00003322243A02425F0A00304EA01111943AC
:1032B0008261016230BD70B5046A24F001040462C9
:1032C0008469056A8E4EB04214D0B0F1804F11D09F
:1032D0008D4EB0420ED08D4EB0420BD08C4EB042CF
:1032E00008D0884EB04205D08A4EB04202D08A4EF5
:1032F000B04203D124F00304144303E024F003029A
:1033000042F001041A0724F0F00444EA126225F0A6
:103310000A0301F00A0119438261016270BD2DE9BF
:10332000F041044690F838000D4601283BD00126B4
:1033300084F83860022084F839009AB3042A44D013
:103340002068082A53D0D5E90027E968036A23F4E6
:1033500080530362D0F81CC0036A2CF4407C4CEA12
:1033600007274FF6FF7C27F470470CEA01313943F9
:103370004FF4204723F4204307EA02321A43C16185
:1033800002622068C16921F44061C1612068C1699D
:10339000AA6841EA0221C16184F83960002084F8FA
:1033A000380024E401E0022021E4D5E90012EB68B2
:1033B0002068FFF780FF2068816921F00C0181619E
:1033C00020688169AA6811430FE0D5E90012EB6813
:1033D0002068FFF755FF2068816921F44061816111
:1033E00020688169AA6841EA02218161D4E7D5E9B0
:1033F000002C2F7B016A21F480710162C169036A8C
:1034000021F0030141EA0C0121F0F00C39074FF4DF
:1034100020674CEA116123F4206307EA02221A4371
:10342000C16102622068C16921F00C01C16120689C
:10343000C169AA681143AEE770B5044690F8380038
:103440000D4601280DD0012684F83860022084F84A
:10345000390042B1042A18D0082A2AD00C2A4DD1AA
:1034600039E0022070BD2068FFF7B7FE206881694F
:1034700041F0080181612068816921F004018161C6
:10348000206881692A69114311E02068FFF778FEFE
:103490002068816941F4006181612068816921F4BB
:1034A00080618161206881692A6941EA0221816124
:1034B00024E02068FFF738FE2068C16941F0080168
:1034C000C1612068C16921F00401C1612068C1693E
:1034D0002A69114311E02068FFF703FE2068C169E3
:1034E00041F40061C1612068C16921F48061C1615A
:1034F0002068C1692A6941EA0221C1610EE0000029
:1035000000000140000401400004004000080040A9
:10351000000C0040004001400018004084F8396071
:10352000002084F8380070BDF0B51E4687B00D4607
:103530000446B24263D094F83800012815D0012720
:1035400084F83870022084F8390028680090686890
:103550000190A8680290E86803902869059068695E
:1035600006902AB1042A0CD107E0022007B0F0BD72
:1035700069462068FFF731FE03E069462068FFF7DF
:10358000FFFD16B1042E34D114E01835206895E8FB
:103590000E00FFF790FE2068816921F00C01816127
:1035A0002068816821F0700181602068816841F0A5
:1035B000500113E01835206895E80E00FFF760FE13
:1035C0002068816921F4406181612068816821F06F
:1035D000700181602068816841F06001816020682D
:1035E000816821F0070181602068816841F006014F
:1035F000816084F83970002084F83800B6E7012033
:10360000B4E710B5806B012180F83910FFF7B4FCE6
:1036100010BD2DE9F041044690F83900069D9C4606
:1036200016468846022807D094F83900012807D1A9
:10363000BCF1000F01D105B163E4022084F8390028
:103640000127F648F64907EB1523B6F5006F39D088
:1036500009DCB6F5807F10D0B6F5007F15D0B6F541
:10366000806F1CD127E0B6F5805F32D0B6F5005FE1
:1036700036D0B6F5804F12D13AE0E269E949D1631C
:10368000E169C8642268E06905E0226AD163216AC1
:10369000C8642268206A61464C32FDF758FC2168F4
:1036A00048EA050088642068C1683143C16084F835
:1036B0003970002025E4626AD163616AC8642268B7
:1036C000606AE8E7A26AD163A16AC8642268A06A56
:1036D000E1E7E26AD163E16AC8642268E06ADAE796
:1036E000226BD149D163216BC8642268206BD2E779
:1036F000626BCE49D163616BC8642268606BCAE7B4
:1037000070B50D460446B1F5006F21D009DCB5F562
:10371000807F10D0B5F5007F0FD0B5F5806F0FD149
:1037200014E0B5F5805F15D0B5F5005F14D0B5F5A0
:10373000804F05D112E0E06900E0206AFDF742FC0D
:103740002068C168A943C160002070BD606AF5E7C8
:10375000A06AF3E7E06AF1E7206BEFE7606BEDE763
:103760002DE9F041044690F83900069D9C46164626
:103770008846022807D094F83900012807D1BCF107
:10378000000F01D105B10CE6022084F83900A348EE
:10379000012707EB1523AFF6E961B6F5006F39D0C5
:1037A00009DCB6F5807F10D0B6F5007F15D0B6F5F0
:1037B000806F1CD127E0B6F5805F32D0B6F5005F90
:1037C00036D0B6F5804F12D13AE0E2699549D1631F
:1037D000E169C8642168E06905E0226AD163216A71
:1037E000C8642168206A62464C31FDF7B0FB21684D
:1037F00048EA050088642068C1683143C16084F8E4
:1038000039700020CDE5626AD163616AC8642168BD
:10381000606AE8E7A26AD163A16AC8642168A06A05
:10382000E1E7E26AD163E16AC8642168E06ADAE745
:10383000226B7D49D163216BC8642168206BD2E77C
:10384000626B7A49D163616BC8642168606BCAE7B7
:1038500070B50D460446B1F5006F21D009DCB5F511
:10386000807F10D0B5F5007F0FD0B5F5806F0FD1F8
:1038700014E0B5F5805F15D0B5F5005F14D0B5F54F
:10388000804F05D112E0E06900E0206AFDF79AFB65
:103890002068C168A943C160002070BD606AF5E777
:1038A000A06AF3E7E06AF1E7206BEFE7606BEDE712
:1038B00090F83820012A0CD0012200F8382F02237A
:1038C000437050F8383C596142700021017008463D
:1038D0007047022070472DE9F041044690F8380007
:1038E00017460D46012809D0012684F838600220C9
:1038F00084F839006868012802D007E0022050E50A
:10390000D5E902212B69206800F07AF937B1042F3C
:103910000FD0082F19D00C2F2DD121E028680028B6
:103920002068816902D041F080010CE021F0800123
:1039300009E0286800282068816902D041F400412C
:1039400001E021F40041816115E028680028206829
:10395000C16902D041F080010CE021F0800109E052
:10396000286800282068C16902D041F4004101E0C4
:1039700021F40041C16184F83960002084F83800E6
:103980000FE570B5044690F83800012817D00125DE
:1039900084F83850022084F839002068826822F0C8
:1039A000770222F47F4282600868502841D00DDC03
:1039B000202863D005DCD8B310284BD15BE002206F
:1039C00070BD30285DD0402844D149E0602838D00F
:1039D00070280BD0B0F5805F03D0B0F5005F39D10F
:1039E00010E02068816821F0070115E0CB68D1E97B
:1039F0000121206800F004F92168886840F0770010
:103A0000886027E0CB68D1E90121206800F0F8F850
:103A10002068816841F4804181601BE0991F0008A3
:103A20005B220008AB1F0008C352000803360008E1
:103A30001EE0CA684968206800F0F4F85021206848
:103A400006E0CA684968206800F0FDF86021206837
:103A500000F0E0F884F83950002084F8380070BD98
:103A6000CA684968206800F0DDF840212068EFE767
:103A700000212068ECE710212068E9E72021206878
:103A8000E6E730212068E3E70268506820F0800014
:103A9000084350600020704730B403689A6822F0F1
:103AA00070044A68224322F007040A6822439A609D
:103AB0004A6812F00F0F1FD11211082A1CD2DFE83A
:103AC00002F01B1B1B1B0B1D23040B69D1E90221F8
:103AD000006830BC00F094B80268136A146A24F0DD
:103AE0000104146202689469096924F0F00444EA4C
:103AF000011191610068036230BC70470A698968EE
:103B0000006830BC00F08EB80A698968006830BC73
:103B100000F099B870B5044690F83800012818D024
:103B2000012584F83850022084F839002046FFF738
:103B3000B3FF2068C16821F04001C1602068C168FE
:103B400021F48041C16084F83950002084F83800A5
:103B500070BD022070BD70B5044690F83800012891
:103B600018D0012584F83850022084F83900204606
:103B7000FFF792FF2068C16841F04001C1602068F2
:103B8000C16821F48041C16084F83950002084F874
:103B9000380070BD022070BD90F838300022012B33
:103BA0000AD0012380F8383041B1042909D008290E
:103BB0000AD00C290DD10AE00220704701684A6B37
:103BC00007E001688A6B04E00168CA6B01E00168E4
:103BD0000A6C002180F838101046704790F83900C0
:103BE000704790F83900704790F83900704790F8A6
:103BF0003900704790F83900704790F839007047E5
:103C000010B5846842EA032224F47F440A43224325
:103C1000826010BD826822F070020A4342F0070100
:103C20008160704710B5036A046A24F001040462DD
:103C3000846924F0F00444EA021423F00A020A43DF
:103C40008461026210BD10B5036A23F010030362A1
:103C50008369046A23F4704343EA023224F0A00328
:103C600043EA01118261016210BD00002DE9F041BB
:103C700004460068016921F44052E1681143016182
:103C80002168C86849F20C6290432369A268E5691B
:103C90001A4363692B431A430243CA602168486987
:103CA00020F44072A06910434861E1696425B1F5D0
:103CB000004FFC48FC4A21684FF032083FD0914247
:103CC00001D081427CD101F06AFE00EBC00101EB22
:103CD000001061688900B0FBF1F601F060FE00EBB6
:103CE000C00101EB001061688900B0FBF1F0B0FB8E
:103CF000F5F06FF01801484306EB800108EB011066
:103D0000B0FBF5F000F0F00601F049FE00EBC00159
:103D100001EB001061688900B0FBF1F0B0FBF5F039
:103D200006EB001601F03BFE00EBC00101EB0010BA
:103D300061688900B0FBF1F701F031FED2E09142F9
:103D400001D081423DD101F02AFE00EBC00101EB20
:103D5000001061684900B0FBF1F0B0FBF5F006011E
:103D600001F01DFE00EBC00101EB0010616849008D
:103D7000B0FBF1F701F013FE00EBC00101EB001006
:103D800061684900B0FBF1F0B0FBF5F06FF018018D
:103D9000484307EB800108EBC100B0FBF5F000F0F1
:103DA000F80006EB400601F0FAFD00EBC00101EB64
:103DB000001061684900B0FBF1F701F0F0FD3CE054
:103DC00055E001F0DAFD00EBC00101EB0010616885
:103DD0004900B0FBF1F0B0FBF5F0060101F0CDFDBC
:103DE00000EBC00101EB001061684900B0FBF1F786
:103DF00001F0C3FD00EBC00101EB00106168490058
:103E0000B0FBF1F0B0FBF5F06FF01801484307EBA1
:103E1000800108EBC100B0FBF5F000F0F80006EB04
:103E2000400601F0AAFD00EBC00101EB0010616843
:103E30004900B0FBF1F701F0A0FD00EBC00101EB80
:103E4000001061684900B0FBF1F0B0FBF5F06FF0D5
:103E50001801484307EB800108EBC100B0FBF5F007
:103E600000F00700216830448860BDE8F08101F06F
:103E700084FD00EBC00101EB001061688900B0FB1C
:103E8000F1F601F07AFD00EBC00101EB0010616872
:103E90008900B0FBF1F0B0FBF5F06FF0180148437A
:103EA00006EB800108EB0110B0FBF5F000F0F00626
:103EB00001F063FD00EBC00101EB001061688900B7
:103EC000B0FBF1F0B0FBF5F006EB001601F055FD8C
:103ED00000EBC00101EB001061688900B0FBF1F755
:103EE00001F04BFD00EBC00101EB0010616889009F
:103EF000B0FBF1F0B0FBF5F06FF01801484307EBB1
:103F0000800108EB0110B0FBF5F000F00F00A9E70D
:103F1000704770B5040004D094F83900002510B142
:103F200006E0012070BD84F838502046FCF7B4F953
:103F3000242084F839002068C16821F40051C16050
:103F40002046FFF793FE2068016921F4904101614A
:103F50002068416921F02A0141612068C16841F46B
:103F60000051C160E563202084F8390084F83A00EC
:103F7000002070BD70B5040004D094F8390000250D
:103F800010B106E0012070BD84F838502046FCF7DF
:103F900083F9242084F839002068C16821F4005195
:103FA000C1602046FFF762FE2068016921F490415C
:103FB00001612068416921F0220141612068416965
:103FC00041F0080141612068C16841F40051C160BD
:103FD000E563202084F8390084F83A00002070BDA1
:103FE00070B50E46040004D094F83900002510B1D5
:103FF00006E0012070BD84F838502046FCF74CF9EB
:10400000242084F839002068C16821F40051C1607F
:104010002046FFF72BFE2068016921F40061016151
:104020002068416921F02A0141612068016941F459
:10403000804101612068016921F02001016120684F
:104040000169314301612068C16841F40051C160D8
:10405000E563202084F8390084F83A00002070BD20
:104060002DE9F04116460F46040004D094F83900BB
:10407000002510B106E00120F7E684F8385020460C
:10408000FCF70AF9242084F839002068C16821F47B
:104090000051C1602046FFF7E9FD2068016921F465
:1040A000904103E0001401400010014001612068CC
:1040B000416921F02A0141612068016921F00F0165
:1040C000016120680169394301612068C16821F4F8
:1040D0000061C1602068C1683143C1602068C16867
:1040E00041F40051C160E563202084F8390084F870
:1040F0003A000020B9E6704710B504000ED0242025
:1041000084F839002046FCF7E5F80020E06384F8E5
:10411000390084F83A0084F8380010BD012010BD41
:104120002DE9F041984617460E460446069D1CE0D0
:10413000681C1AD02DB101F0DBFFA0EB0800A842EB
:1041400013D92068C16821F4D071C1602068416929
:1041500021F001014161202084F8390084F83A00FF
:10416000002084F8380003207FE62068006836EAE3
:10417000000004D00020B842DAD0002075E601200B
:10418000F9E72DE9F843044690F839001F46164632
:104190000D46202850D1A5B19EB194F838000128D1
:1041A0004AD0012084F838004FF00008C4F83C8061
:1041B000212084F8390001F09BFFA6848146E68423
:1041C00026E00120BDE8F883E08C401EE084A06872
:1041D0004B46B0F5805F4FF000024FF08001204663
:1041E000009703D0FFF79CFFE8B90DE0FFF798FFB9
:1041F000C8B928882168C0F308004860206908B160
:104200006D1C05E0AD1C03E0216815F8010B48604A
:10421000E08C0028D8D14B46002240212046009750
:10422000FFF77EFF08B10320CCE7202084F8390097
:1042300084F838800020C5E70220C3E72DE9F84361
:10424000044690F83A00994616460D4620284ED16D
:1042500095B18EB194F83800012848D0012084F837
:1042600038000027E763222084F83A0001F040FF7D
:10427000A6858046E68530E00120A3E7E08D401E5C
:10428000E085A0684346B0F5805F4FF000024FF034
:1042900020012046CDF8009004D0FFF741FF98B1EF
:1042A00003208FE7FFF73CFF0028F9D120690028A1
:1042B0002068406803D0C1B225F8011B0DE0C0F3AF
:1042C000080125F8021B08E02069002820684068E2
:1042D00001D000F07F0005F8010BE08D0028CDD162
:1042E000202084F83A0084F8387000206AE7022021
:1042F00068E790F83930202B18D1A9B1A2B190F815
:104300003830012B12D001628284C2840021C16343
:10431000212280F8392080F838100068C16841F007
:104320008001C16000207047012070470220704763
:1043300090F83A30202B1DD1D1B1CAB190F8383065
:10434000012B17D081628285C2850021C1632222A0
:1043500080F83A2080F8381001684A6942F001027A
:104360004A610068C16841F49071C16000207047E3
:104370000120704702207047704770B5846B206839
:10438000406994F83910C0F3C0100025212904D1E8
:1043900018B1E584204600F0CCFA2068406994F812
:1043A0003A10C0F38010222904D118B1E5852046C7
:1043B00000F0B1FAE06B40F01000E0632046FFF738
:1043C000DBFF70BD704710B5806BFFF7FBFF10BDC2
:1043D000704710B50146806B09680968C9050CD49F
:1043E0000021C18401684A6922F080024A610068A4
:1043F000C16841F04001C16010BDFFF7E9FF10BD89
:1044000070B5044690F83900202830D169B362B302
:1044100094F8380001282AD0012084F8380021625D
:10442000A284E2840025E563212084F83900236B0F
:10443000FD48D863236BFD481864236BFC48D8649F
:10444000206B134605652668206B321DFCF77FFD47
:1044500021686FF04000086084F838502068416996
:1044600041F080014161002070BD012070BD02203B
:1044700070BD704710B5806BFFF7FBFF10BD704734
:1044800010B50146806B09680968C90513D400217D
:10449000C1850168CA6822F48072CA6001684A69ED
:1044A00022F001024A6101684A6922F040024A6131
:1044B000202180F83A10FFF7E2FF10BD70B50446E6
:1044C00090F83A00202839D1A9B3A2B394F8380063
:1044D000012833D0012084F83800A162A28500258C
:1044E000E563222084F83A00636BD248D863636B9B
:1044F000D1481864636BCE48D864606B1346056579
:104500000846666B216802463046091DFCF71FFD10
:104510002068C16841F48071C1602068416941F040
:10452000010141612068416941F04001416184F825
:104530003850002070BDFFE70120FBE70220F9E7BB
:1045400090F8381001290BD0012180F8381001684B
:104550004A6990F83930C2F3C012212B02D006E02C
:10456000022070471AB14A6922F080024A6101684C
:104570004A6990F83A30C2F38012222B0ED16AB108
:10458000CA6822F48072CA6001684A6922F0010296
:104590004A6101684A6922F040024A61002180F8BC
:1045A00038100846704708B590F83810012907D030
:1045B000012180F8381090F83910212902D006E046
:1045C000022008BD01684A6942F080024A6190F801
:1045D0003A100022222911D101680B684B68009320
:1045E000CB6843F48073CB6001684B6943F00103EF
:1045F0004B6101684B6943F040034B6180F8382000
:10460000002008BD10B504460068416994F83920BF
:10461000C1F3C011212A0BD151B1416921F08001B0
:104620004161206B08B1FCF7CDFC204600F081F918
:104630002068416994F83A20C1F38011222A0BD1F5
:1046400051B1416921F040014161606B08B1FCF753
:10465000B9FC204600F05FF9002010BD10B5806B5A
:104660000021C185C184FFF787FE10BD10B590F809
:104670003A10222901D0022010BD8168B1F5805F77
:1046800011D00169002901681FD0496801F07F033A
:10469000816A4A1C82620B70C18D491E0904090C93
:1046A000C18518D026E00269816A002A0268526832
:1046B00005D0D2B20A80816A491C8162ECE7C2F35C
:1046C00008020A80816A891CF7E74A68816A4B1CE4
:1046D00083620A70E0E70168CA6822F49072CA60D7
:1046E00001684A6922F001024A61202180F83A10EB
:1046F000FFF7C5FE002010BD70B5026804461068C3
:10470000D168536910F00F0F51D003F0010501F487
:10471000907635435CD0C20705D0CA0503D5E26B5D
:1047200042F00102E263420705D5DA0703D0E26BEB
:1047300042F00202E263820705D5DA0703D0E26B9A
:1047400042F00402E263020705D5DA0703D0E26B08
:1047500042F00802E263E26B002A33D0800604D5FF
:10476000880602D52046FFF781FF20684069E16B8B
:10477000C0F3801001F008010143204623D000F06F
:10478000CAF820684169490619D5416921F04001FC
:104790004161606B98B129490165606BFCF759FC78
:1047A00000280FD0606B016DBDE87040084783069C
:1047B0000ED58B060CD52046BDE8704056E7204646
:1047C000FFF7DAFDB6E6FFF7D7FD0020E063B1E6BC
:1047D000030606D50B0604D52046BDE8704000F060
:1047E000B1B84006EED54806ECD5D168204621F098
:1047F0004001D160202184F83910FFF7E9FD99E6E6
:1048000090F8381001291DD0012100F8381F24210B
:10481000417050F8381CCA6842F00102CA60202179
:104820004170002101700BE0D3430008C74300082A
:104830007B43000881440008754400085D46000879
:10484000084670470220704790F83810012910D0B0
:10485000012100F8381F2421417050F8381CCA6823
:1048600042F00202CA602021417000210170084616
:1048700070470220704790F83810012910D00121AC
:1048800000F8381F2421417050F8381CCA6822F003
:104890000202CA6020214170002101700846704761
:1048A0000220704790F83810012912D0012100F839
:1048B000381F2421417050F8381CCA6822F00C02BD
:1048C00042F00802CA6020214170002101700846B0
:1048D00070470220704790F83810012912D001214A
:1048E00000F8381F2421417050F8381CCA6822F0A3
:1048F0000C0242F00402CA602021417000210170C4
:10490000084670470220704710F8391F4078084366
:104910007047C06B70470168CA6822F49072CA6021
:1049200001684A6922F001024A61202180F83A10A8
:1049300070470168CA6822F0C002CA60202180F86E
:104940003910704790F83910212901D002207047A2
:104950008168B1F5805F016A0BD04A1C026202686F
:1049600009785160C18C491E0904090CC1840ED01C
:1049700017E009880268C1F3080151600169002944
:10498000016A02D0491C0162ECE7891CFBE701685F
:10499000CA6822F08002CA600068C16841F0400124
:1049A000C160002070470000704730B587B00D46E9
:1049B000040050D0022084F839002046FFF7F4FFAD
:1049C000211D2068FDF720FAAB68296803222068C2
:1049D000FEF771FC2068816921F00C01816120687B
:1049E00081696A68114381612068416841F08001F2
:1049F00041602068816821F07001816020688168D1
:104A000041F0400181602068816821F007018160E8
:104A10002068816841F004018160002070210590C8
:104A200000910490069003900290E8680190694616
:104A30002068FEF7A5FB2068416821F07001416005
:104A40002068416841F050014160012084F839003C
:104A5000002007B030BD0120FBE7704710B50446C9
:104A6000022084F839002068016A41F211121142D3
:104A700007D1016A9210114203D1016821F00101AE
:104A800001602046FFF7E9FF002084F8390084F830
:104A9000380010BD10B50446006801220021FDF762
:104AA00007FB2068016841F001010160002010BD92
:104AB00010B50446002200681146FDF7F9FA206897
:104AC000016A41F21112114207D1016A921011429A
:104AD00003D1016821F001010160002010BD10B573
:104AE00004460068C16841F00201C1600122002152
:104AF0002068FDF7DDFA2068016841F001010160DE
:104B0000002010BD10B50446002200681146FDF7D4
:104B1000CFFA2068C16821F00201C1602068016AF3
:104B200041F21112114207D1016A9210114203D1D0
:104B3000016821F001010160002010BD70B504463C
:104B400090F8390015460E46022805D094F8390031
:104B5000012805D10EB905B170BD022084F83900D5
:104B6000012200212068FDF7A3FA216AF8482B46AC
:104B7000C863216AF7483246C8642168206A343124
:104B8000FCF7E5F92068C16841F40071C160206854
:104B9000016841F001010160002070BD10B50446BC
:104BA000002200681146FDF783FA2068C16821F4ED
:104BB0000071C1602068016A41F21112114207D1EF
:104BC000016A9210114203D1016821F001010160D4
:104BD000002010BD10B504460068042200F015FC4A
:104BE0002068416C41F4004141642068016841F053
:104BF00001010160002010BD10B5044600680022CC
:104C000000F003FC2068036A41F211110B4240F2EC
:104C1000444206D1036A134203D1436C23F4004398
:104C200043642068036A0B4206D1016A114203D132
:104C3000016821F001010160002010BD10B502687B
:104C4000044631B1042908D008291FD00C2908D105
:104C500020E0D06840F0020002E0D06840F004009C
:104C6000D0602068C26842F08002C26004222068DE
:104C700000F0CBFB2068416C41F4004141642068A6
:104C8000016841F001010160002010BDD06840F0D2
:104C90000800E5E7D06840F01000E1E710B50268D1
:104CA000044631B1042908D0082932D00C2908D192
:104CB00033E0D06820F0020002E0D06820F0040069
:104CC000D0600022206800F0A0FB2068026A40F259
:104CD00044410A4203D1C26822F08002C2602068C7
:104CE000036A41F21112134206D1036A0B4203D147
:104CF000436C23F4004343642068036A134206D1E3
:104D0000026A0A4203D1016821F00101016000201A
:104D100010BDD06820F00800D2E7D06820F0100065
:104D2000CEE770B5044690F8390016460D460228C5
:104D300005D094F83900012805D10EB903B170BD32
:104D4000022084F839008448824935B1042D13D0FB
:104D5000082D31D00C2D1ED13DE0226AD063206A8F
:104D6000C164226831463432206AFCF7F0F82068CA
:104D7000C16841F400710DE0626AD063606AC16489
:104D8000226831463832606AFCF7E1F82068C16871
:104D900041F48061C16004222946206800F035FB9F
:104DA0002068416C41F4004141642068016841F091
:104DB00001010160002070BDA26AD063A06AC164D5
:104DC000226831463C32A06AFCF7C1F82068C1680D
:104DD00041F40061DEE7E26AD063E06AC164226800
:104DE00031464032E06AFCF7B2F82068C16841F40D
:104DF0008051CFE710B50268044631B1042908D0CC
:104E000008292DD00C2908D12EE0D06820F400709C
:104E100002E0D06820F48060D0600022206800F0BA
:104E2000F4FA2068036A41F21112134240F244413D
:104E300006D1036A0B4203D1436C23F4004343645D
:104E40002068036A134206D1026A0A4203D101684C
:104E500021F001010160012084F83900002010BD1B
:104E6000D06820F40060D7E7D06820F48050D3E702
:104E700010B504460068042200F0C7FA2068416CAF
:104E800041F4004141642068016841F00101016082
:104E9000002010BD10B504460068002200F0B5FAED
:104EA0002068036A41F211110B4240F2444206D1DC
:104EB000036A134203D1436C23F400434364206824
:104EC000036A0B4206D1016A114203D1016821F045
:104ED00001010160002010BD10B50268044631B127
:104EE000042908D008291FD00C2908D120E0D06857
:104EF00040F0020002E0D06840F00400D06020687A
:104F0000C26842F08002C2600422206800F07DFA8C
:104F10002068416C41F4004141642068016841F01F
:104F200001010160002010BDD06840F00800E5E7F5
:104F3000D06840F01000E1E710B50268044669B19E
:104F400004290FD0082939D00C290FD13AE00000EC
:104F5000AF280008991F00085B220008D06820F0E5
:104F6000020002E0D06820F00400D0600022206837
:104F700000F04BFA2068026A40F244410A4203D131
:104F8000C26822F08002C2602068036A41F21112F6
:104F9000134206D1036A0B4203D1436C23F400434E
:104FA00043642068036A134206D1026A0A4203D1AD
:104FB000016821F001010160002010BDD06820F0DF
:104FC0000800D2E7D06820F01000CEE770B50446A4
:104FD00090F8390016460D46022805D094F839009D
:104FE000012805D10EB903B170BD022084F8390043
:104FF000F848F94935B1042D13D0082D31D00C2DC6
:105000001ED13DE0226AD063206AC1642268314625
:105010003432206AFBF79BFF2068C16841F40071BD
:105020000DE0626AD063606AC1642268314638323A
:10503000606AFBF78CFF2068C16841F48061C16041
:1050400004222946206800F0E0F92068416C41F410
:10505000004141642068016841F0010101600020C5
:1050600070BDA26AD063A06AC164226831463C3236
:10507000A06AFBF76CFF2068C16841F40061DEE7BD
:10508000E26AD063E06AC164226831464032E06A75
:10509000FBF75DFF2068C16841F48051CFE710B590
:1050A0000268044631B1042908D008292DD00C2902
:1050B00008D12EE0D06820F4007002E0D06820F41F
:1050C0008060D0600022206800F09FF92068036AA9
:1050D00041F21112134240F2444106D1036A0B42DD
:1050E00003D1436C23F4004343642068036A1342F2
:1050F00006D1026A0A4203D1016821F00101016070
:10510000012084F83900002010BDD06820F4006030
:10511000D7E7D06820F48050D3E710B50446006884
:10512000042200F072F92068416C41F400414164AE
:10513000002010BD10B504460068002200F065F99B
:105140002068036A41F211110B4240F2444206D139
:10515000036A134203D1436C23F400434364206881
:10516000036A0B4206D1016A114203D1016821F0A2
:1051700001010160002010BD10B504460068C2683E
:1051800042F00202C2602068C26842F00402C260BB
:105190000422206800F039F92068416C41F4004194
:1051A0004164002010BD10B504460068C26822F0BA
:1051B0000202C2602068C26822F00402C2600022BB
:1051C000206800F022F92068036A41F211110B42B5
:1051D00040F2444206D1036A134203D1436C23F4E4
:1051E000004343642068036A0B4206D1016A1142FE
:1051F00003D1016821F001010160002010BD10B54C
:1052000090F83830012B0AD0012380F8383041B1B2
:10521000102906D0202904D0302902D00AE002202B
:1052200010BD03689C6824F070049C6003689C684F
:105230000C439C6001684B6843F001034B600168BC
:105240004B6823F004034B6001684B6813434B60C9
:10525000002180F83810084610BD10B590F838309D
:10526000012B0AD0012380F8383041B1102906D033
:10527000202904D0302902D00AE0022010BD0368A2
:105280009C6824F070049C6003689C680C439C60DC
:1052900001684B6843F001034B6001684B6823F0E1
:1052A00004034B6001684B6813434B600168CA6894
:1052B00042F02002CA60002180F83810084610BD74
:1052C000704710B5806B012180F83910FFF7F8FFA7
:1052D00010BD10B590F83830012B0AD0012380F8AA
:1052E000383041B1102906D0202904D0302902D00D
:1052F0000AE0022010BD03689C6824F070049C60E2
:1053000003689C680C439C6001684B6843F0010390
:105310004B6001684B6823F004034B6001684B68E5
:1053200013434B60AFF26501026BD163026B2A49F4
:10533000D1640168CA6842F40052CA60002180F852
:105340003810084610BD30B590F83820012A20D01A
:10535000012280F83820022380F8393003685C6825
:1053600024F070045C6003685C680D682C435C602A
:1053700003689C6824F080049C6003689C6849680A
:105380000C439C6080F83920002180F838100846D2
:1053900030BD022030BD30B590F83820012A1DD034
:1053A000012200F8382F02234370D1E9003423434F
:1053B000D1E902452C4323430C6923434C69896995
:1053C00023430B4350F8381C4B644270002101709A
:1053D000084630BD5B220008991F00080220F8E74C
:1053E00090F83820012A0AD0012200F8382F50F80E
:1053F000383C196542700021017008467047022050
:105400007047704790F83900704710B50423046A5C
:105410008B409C430462036A8A401343036210BDBD
:1054200070472DE9F84F0446DFF824840078A8F18E
:10543000040BC007ABF1040536D0D8F80010404685
:10544000C1F38101012908D00068C0F3810002285E
:105450000AD1DBF80000400206D52868800323D576
:105460006068002877D01FE0F9492079891F08700B
:10547000606860B100F03CFE064604E000F038FED3
:10548000801B642868D828688003F7D50CE000F0FA
:105490002FFE064605E000BF00F02AFE801B6428B0
:1054A000F0D828688003F7D42078EA4E80074FF0C0
:1054B000010A4FF0000742D5D8F80010404611F01D
:1054C0000C0F08D00068C0F3810002280AD1DBF875
:1054D0000000400206D42868800714D5E06801283F
:1054E00039D110E0E068D8B1C6F800A000F000FEA5
:1054F000814605E000F0FCFDA0EB09000228C1D8C0
:1055000028688007F6D52868F82292FAA2F2216965
:10551000B2FA82F220F0F8009140084328600EE0D1
:10552000376000F0E5FD814606E000BF00F0E0FDD9
:10553000A0EB090002280FD828688007F6D420784D
:10554000000728D5C4486169A1B1C0F800A000F0E7
:10555000CFFD814608E0CAE079E000BF00F0C8FD59
:10556000A0EB0900022872D8B9486C3000688007A7
:10557000F4D510E0076000F0BBFD814606E000BFF7
:1055800000F0B6FDA0EB0900022860D8B0486C30EE
:1055900000688007F4D42078400749D5AC483830FB
:1055A000016841F080510160006800F08050009077
:1055B000AA48016841F48071016000F099FD8146BC
:1055C00006E000BF00F094FDA0EB090002283ED8E1
:1055D000A2480068C005F5D5DFF87492207A09F179
:1055E000680989F80000A06888B100F081FD00908A
:1055F00008E000BF00F07CFD0099411A41F28830BC
:1056000081426CD8D9F800008007F3D510E000F093
:105610006FFD009008E000BF00F06AFD0099411A9C
:1056200041F2883081425AD8D9F800008007F3D47B
:10563000A069E0B3D8F80010C1F38101022956D067
:105640000228376604D000F053FD04464AE046E0E5
:1056500000F04EFD074604E000F04AFDC01B0228A2
:105660003DD828688001F7D4D4E90701084347F6FC
:10567000C07292FAA2F2616AB2FA82F29140A26A10
:105680004FF0FF3303EB52024FF4403393FAA3F38E
:10569000B3FA83F39A40114308434FF0706292FAD1
:1056A000A2F2E16AB2FA82F29140084300E01CE003
:1056B000CBF80000C6F860A000F01AFD044604E034
:1056C00000F016FD001B022809D828688001F7D5D4
:1056D0000BE000BF00F00CFD001B022802D90320E4
:1056E000BDE8F88F28688001F4D40020F8E7012095
:1056F000F6E730B55648006810F00C01584812D053
:10570000584C04290ED008290DD15149091F0A68A7
:1057100002F03F030A68550247F6C07204D5B4FB95
:10572000F3F003E0204630BDB0FBF3F00B680968EE
:10573000134092FAA2F2B2FA82F2D34058434FF4E5
:10574000403292FAA2F201F44031B2FA82F2D14030
:10575000491C4900B0FBF1F030BD2DE9F047DFF8FE
:10576000089105460F46D9F8000000F00F01F8B285
:105770008046B94208D2014689F80010D9F80000E5
:1057800000F00F00B84271D12878314C800705D560
:105790002068A96820F0F000084320602878C0073E
:1057A00069D02B496868083901281AD002281BD013
:1057B000032819D00968890700296ADA216821F0CD
:1057C00003010143216000F093FC6968064641F241
:1057D0008830012912D002291ED00329824628D000
:1057E00045E009688903E7E709688901E4E700BF44
:1057F00000F07EFC811B514501D926E082462068DD
:10580000C0F381000128F3D135E000BF00F070FC47
:10581000811B514501D918E082462068C0F3810000
:105820000228F3D127E000BF00F062FC811B514544
:105830000BD82068C0F381000328F5D11BE000BF1E
:1058400000F056FC811B514511D90320BDE8F087BB
:105850000838024000004742800E47420070004076
:105860000024F40040787D01003C024011E02068F3
:1058700010F00C0FE4D1D9F80010484601F00F01E8
:10588000B94208D980F80080006800F00F00B842E3
:1058900001D00120DAE72878400705D52068E968BB
:1058A00020F4E050084320602878000706D52068DF
:1058B000296920F4604040EAC1002060FFF719FF29
:1058C0002168F02292FAA2F201F0F001B2FA82F21B
:1058D000D140884A515CC84087490860002000F0E8
:1058E000C0FB0020B2E7F0B5844C16460D46834B52
:1058F000002102220327283C0028186887B019D00D
:1059000040F004001860186800F0040005901002D0
:105910000090CDE90121CDE903716946784800F096
:105920000DFA206845EAC60120F07840084320605F
:1059300007B0F0BD40F001001860186800F00100E9
:1059400005904FF480700090CDE90121CDE90371FD
:1059500069466C4800F0F2F92068354320F0EC60AD
:105960002843E4E768490120C8647047664900207D
:10597000C864704760480068704760495E482839CD
:10598000006809684FF4E05292FAA2F201F4E05183
:10599000B2FA82F2D140574A515CC8407047574929
:1059A00055482839006809684FF4604292FAA2F21B
:1059B00001F46041B2FA82F2D1404E4A515CC840D3
:1059C000704770B54D4B0F21303B016019684FF0A7
:1059D00005044D034FF000024FF0010101D5446072
:1059E00005E01D68ED0301D5416000E042601D68DF
:1059F000ED0701D0C16000E0C2601D68F82696FA8C
:105A0000A6F605F0F805B6FA86F6F54005613B4DB9
:105A100040352E68760701D5846005E02C68E407E0
:105A200001D0816000E08260344C44342468E40793
:105A300001D0416100E042611A68D20100D5022123
:105A400081612E492C390A6802F48002C2610A6819
:105A500002F03F0202620A6847F6C0731A4093FAE6
:105A6000A3F3B3FA83F3DA4042620A684FF4403397
:105A700002F4403202F5803293FAA3F35200B3FAF3
:105A800083F3DA40826209684FF0706292FAA2F200
:105A900001F07061B2FA82F2D140C16270BD0F2292
:105AA0000260164A283A136803F003034360136840
:105AB00003F0F0038360136803F4E053C3601268DB
:105AC0004FF4E05303EAD20202611048006800F08C
:105AD0000F00086070477047084810B52438006808
